{
  "contractName": "Inbox2",
  "abi": [
    {
      "inputs": [
        {
          "internalType": "string",
          "name": "initialMessage",
          "type": "string"
        }
      ],
      "stateMutability": "nonpayable",
      "type": "constructor"
    },
    {
      "inputs": [],
      "name": "message",
      "outputs": [
        {
          "internalType": "string",
          "name": "",
          "type": "string"
        }
      ],
      "stateMutability": "view",
      "type": "function",
      "constant": true
    },
    {
      "inputs": [],
      "name": "getMessage",
      "outputs": [
        {
          "internalType": "string",
          "name": "",
          "type": "string"
        }
      ],
      "stateMutability": "view",
      "type": "function",
      "constant": true
    },
    {
      "inputs": [
        {
          "internalType": "string",
          "name": "newMessage",
          "type": "string"
        }
      ],
      "name": "setMessage",
      "outputs": [],
      "stateMutability": "nonpayable",
      "type": "function"
    },
    {
      "inputs": [],
      "name": "getOwner",
      "outputs": [
        {
          "internalType": "address",
          "name": "",
          "type": "address"
        }
      ],
      "stateMutability": "view",
      "type": "function",
      "constant": true
    }
  ],
  "bytecode": "0x60806040523480156200001157600080fd5b5060405162000b4738038062000b478339818101604052810190620000379190620002e5565b33600160006101000a81548173ffffffffffffffffffffffffffffffffffffffff021916908373ffffffffffffffffffffffffffffffffffffffff16021790555080600090805190602001906200009092919062000098565b50506200039a565b828054620000a69062000365565b90600052602060002090601f016020900481019282620000ca576000855562000116565b82601f10620000e557805160ff191683800117855562000116565b8280016001018555821562000116579182015b8281111562000115578251825591602001919060010190620000f8565b5b50905062000125919062000129565b5090565b5b80821115620001445760008160009055506001016200012a565b5090565b6000604051905090565b600080fd5b600080fd5b600080fd5b600080fd5b6000601f19601f8301169050919050565b7f4e487b7100000000000000000000000000000000000000000000000000000000600052604160045260246000fd5b620001b18262000166565b810181811067ffffffffffffffff82111715620001d357620001d262000177565b5b80604052505050565b6000620001e862000148565b9050620001f68282620001a6565b919050565b600067ffffffffffffffff82111562000219576200021862000177565b5b620002248262000166565b9050602081019050919050565b60005b838110156200025157808201518184015260208101905062000234565b8381111562000261576000848401525b50505050565b60006200027e6200027884620001fb565b620001dc565b9050828152602081018484840111156200029d576200029c62000161565b5b620002aa84828562000231565b509392505050565b600082601f830112620002ca57620002c96200015c565b5b8151620002dc84826020860162000267565b91505092915050565b600060208284031215620002fe57620002fd62000152565b5b600082015167ffffffffffffffff8111156200031f576200031e62000157565b5b6200032d84828501620002b2565b91505092915050565b7f4e487b7100000000000000000000000000000000000000000000000000000000600052602260045260246000fd5b600060028204905060018216806200037e57607f821691505b60208210810362000394576200039362000336565b5b50919050565b61079d80620003aa6000396000f3fe608060405234801561001057600080fd5b506004361061004c5760003560e01c8063368b877214610051578063893d20e81461006d578063ce6d41de1461008b578063e21f37ce146100a9575b600080fd5b61006b6004803603810190610066919061054c565b6100c7565b005b610075610173565b60405161008291906105d6565b60405180910390f35b61009361019d565b6040516100a09190610679565b60405180910390f35b6100b16102c1565b6040516100be9190610679565b60405180910390f35b338073ffffffffffffffffffffffffffffffffffffffff16600160009054906101000a900473ffffffffffffffffffffffffffffffffffffffff1673ffffffffffffffffffffffffffffffffffffffff1614610158576040517f08c379a000000000000000000000000000000000000000000000000000000000815260040161014f906106e7565b60405180910390fd5b816000908051906020019061016e92919061034f565b505050565b6000600160009054906101000a900473ffffffffffffffffffffffffffffffffffffffff16905090565b6060338073ffffffffffffffffffffffffffffffffffffffff16600160009054906101000a900473ffffffffffffffffffffffffffffffffffffffff1673ffffffffffffffffffffffffffffffffffffffff1614610230576040517f08c379a0000000000000000000000000000000000000000000000000000000008152600401610227906106e7565b60405180910390fd5b6000805461023d90610736565b80601f016020809104026020016040519081016040528092919081815260200182805461026990610736565b80156102b65780601f1061028b576101008083540402835291602001916102b6565b820191906000526020600020905b81548152906001019060200180831161029957829003601f168201915b505050505091505090565b600080546102ce90610736565b80601f01602080910402602001604051908101604052809291908181526020018280546102fa90610736565b80156103475780601f1061031c57610100808354040283529160200191610347565b820191906000526020600020905b81548152906001019060200180831161032a57829003601f168201915b505050505081565b82805461035b90610736565b90600052602060002090601f01602090048101928261037d57600085556103c4565b82601f1061039657805160ff19168380011785556103c4565b828001600101855582156103c4579182015b828111156103c35782518255916020019190600101906103a8565b5b5090506103d191906103d5565b5090565b5b808211156103ee5760008160009055506001016103d6565b5090565b6000604051905090565b600080fd5b600080fd5b600080fd5b600080fd5b6000601f19601f8301169050919050565b7f4e487b7100000000000000000000000000000000000000000000000000000000600052604160045260246000fd5b61045982610410565b810181811067ffffffffffffffff8211171561047857610477610421565b5b80604052505050565b600061048b6103f2565b90506104978282610450565b919050565b600067ffffffffffffffff8211156104b7576104b6610421565b5b6104c082610410565b9050602081019050919050565b82818337600083830152505050565b60006104ef6104ea8461049c565b610481565b90508281526020810184848401111561050b5761050a61040b565b5b6105168482856104cd565b509392505050565b600082601f83011261053357610532610406565b5b81356105438482602086016104dc565b91505092915050565b600060208284031215610562576105616103fc565b5b600082013567ffffffffffffffff8111156105805761057f610401565b5b61058c8482850161051e565b91505092915050565b600073ffffffffffffffffffffffffffffffffffffffff82169050919050565b60006105c082610595565b9050919050565b6105d0816105b5565b82525050565b60006020820190506105eb60008301846105c7565b92915050565b600081519050919050565b600082825260208201905092915050565b60005b8381101561062b578082015181840152602081019050610610565b8381111561063a576000848401525b50505050565b600061064b826105f1565b61065581856105fc565b935061066581856020860161060d565b61066e81610410565b840191505092915050565b600060208201905081810360008301526106938184610640565b905092915050565b7f446562652073657220656c206f776e65722070617261206d6f64696669636172600082015250565b60006106d16020836105fc565b91506106dc8261069b565b602082019050919050565b60006020820190508181036000830152610700816106c4565b9050919050565b7f4e487b7100000000000000000000000000000000000000000000000000000000600052602260045260246000fd5b6000600282049050600182168061074e57607f821691505b60208210810361076157610760610707565b5b5091905056fea26469706673582212209decc0191f142f51185ed6b16bb7535c98a1d672488c53e9d6101d91150ff73364736f6c634300080e0033",
  "immutableReferences": {},
  "source": "// SPDX-License-Identifier: GPL-3.0\r\n\r\n//Usando Modifier\r\n\r\npragma solidity ^0.8.0; //poner la version de solidity que usaremos\r\n\r\ncontract Inbox2{\r\n\r\n    string public message; //tipo, modificador de visibilidad, nombre\r\n    address private ownerAddress;         //varibale de tipo billetera\r\n\r\n    constructor(string memory initialMessage){\r\n        ownerAddress=msg.sender;              //msg son variables globales que tiene el smart contract\r\n        //Aqui guardamos quien es el owner al deployar\r\n        //msg sender---> el que crea el smart contract? o llame a la funcion video 5\r\n        message=initialMessage;\r\n    }\r\n\r\n\r\n    function getMessage()public onlyOwner (msg.sender)view returns(string memory){  //Usar memory para strings?, view para que no nos cobre al consultar\r\n        return message;\r\n\r\n    }\r\n\r\n    function setMessage(string memory newMessage) public onlyOwner (msg.sender){     //Usar memory para strings?//Queremos restringir esta funcion\r\n        // require(msg.sender==ownerAddress, \"Debe ser el owner para modificar\");\r\n        message=newMessage;                                   //Usaremos un require\r\n    }\r\n\r\n    function getOwner()public view returns(address){\r\n        return ownerAddress;\r\n    }\r\n\r\n    modifier onlyOwner(address client){ //para factorizar codigo\r\n        require(ownerAddress==client, \"Debe ser el owner para modificar\");\r\n        _;\r\n    }\r\n\r\n}\r\n\r\n//require(1==2, \"No SE PUDO\");\r\n//bytes(newMessage).length>10------>castear a bytes\r\n//require(bytes(newMessage).length>10, \"Debe tener de largo 10\");\r\n\r\n",
  "sourcePath": "C:\\Users\\LENOVO RYZEN 7\\OneDrive\\Documentos\\semestre5\\modulo3\\blockchain\\blockchain-course-Garcia\\src\\ethereum\\contracts\\Inbox2.sol",
  "compiler": {
    "name": "solc",
    "version": "0.8.14+commit.80d49f37.Emscripten.clang"
  },
  "schemaVersion": "3.4.7",
  "updatedAt": "2022-06-17T11:36:07.661Z",
  "networkType": "ethereum",
  "devdoc": {
    "kind": "dev",
    "methods": {},
    "version": 1
  },
  "userdoc": {
    "kind": "user",
    "methods": {},
    "version": 1
  }
}