{
  "contractName": "TestBank",
  "abi": [
    {
      "inputs": [],
      "stateMutability": "nonpayable",
      "type": "constructor"
    },
    {
      "anonymous": false,
      "inputs": [
        {
          "indexed": false,
          "internalType": "uint256",
          "name": "id",
          "type": "uint256"
        },
        {
          "indexed": false,
          "internalType": "string",
          "name": "name",
          "type": "string"
        },
        {
          "indexed": false,
          "internalType": "uint256",
          "name": "amount",
          "type": "uint256"
        }
      ],
      "name": "clientDeposit",
      "type": "event"
    },
    {
      "inputs": [
        {
          "internalType": "uint256",
          "name": "",
          "type": "uint256"
        }
      ],
      "name": "listAccounts",
      "outputs": [
        {
          "internalType": "uint256",
          "name": "id",
          "type": "uint256"
        },
        {
          "internalType": "string",
          "name": "name",
          "type": "string"
        },
        {
          "internalType": "uint256",
          "name": "balance",
          "type": "uint256"
        },
        {
          "internalType": "bool",
          "name": "enable",
          "type": "bool"
        }
      ],
      "stateMutability": "view",
      "type": "function",
      "constant": true
    },
    {
      "inputs": [
        {
          "components": [
            {
              "internalType": "uint256",
              "name": "id",
              "type": "uint256"
            },
            {
              "internalType": "string",
              "name": "name",
              "type": "string"
            },
            {
              "internalType": "uint256",
              "name": "balance",
              "type": "uint256"
            },
            {
              "internalType": "bool",
              "name": "enable",
              "type": "bool"
            }
          ],
          "internalType": "struct TestBank.Account",
          "name": "accountData",
          "type": "tuple"
        }
      ],
      "name": "createAccount",
      "outputs": [],
      "stateMutability": "nonpayable",
      "type": "function"
    },
    {
      "inputs": [
        {
          "internalType": "uint256",
          "name": "id",
          "type": "uint256"
        }
      ],
      "name": "depositMoney",
      "outputs": [],
      "stateMutability": "payable",
      "type": "function",
      "payable": true
    },
    {
      "inputs": [
        {
          "internalType": "uint256",
          "name": "id",
          "type": "uint256"
        },
        {
          "internalType": "uint256",
          "name": "amount",
          "type": "uint256"
        }
      ],
      "name": "redrawMoney",
      "outputs": [],
      "stateMutability": "payable",
      "type": "function",
      "payable": true
    },
    {
      "inputs": [
        {
          "internalType": "uint256",
          "name": "id",
          "type": "uint256"
        }
      ],
      "name": "blockAccount",
      "outputs": [],
      "stateMutability": "nonpayable",
      "type": "function"
    },
    {
      "inputs": [
        {
          "internalType": "bool",
          "name": "state",
          "type": "bool"
        }
      ],
      "name": "closeOrOpenBank",
      "outputs": [],
      "stateMutability": "nonpayable",
      "type": "function"
    },
    {
      "inputs": [],
      "name": "withdrawAllMoney",
      "outputs": [],
      "stateMutability": "nonpayable",
      "type": "function"
    }
  ],
  "bytecode": "0x608060405260008060146101000a81548160ff02191690831515021790555034801561002a57600080fd5b50336000806101000a81548173ffffffffffffffffffffffffffffffffffffffff021916908373ffffffffffffffffffffffffffffffffffffffff1602179055506115408061007a6000396000f3fe6080604052600436106100705760003560e01c80635f3501eb1161004e5780635f3501eb146100f5578063913a9bfc1461011e578063ae18c52b1461013a578063e8dc04fa1461015657610070565b80631b52b9de14610075578063429f3b481461008c57806347f5b93d146100b5575b600080fd5b34801561008157600080fd5b5061008a61017f565b005b34801561009857600080fd5b506100b360048036038101906100ae9190610c68565b610256565b005b3480156100c157600080fd5b506100dc60048036038101906100d79190610c68565b610366565b6040516100ec9493929190610d58565b60405180910390f35b34801561010157600080fd5b5061011c60048036038101906101179190610fa3565b61042b565b005b61013860048036038101906101339190610fec565b6105ec565b005b610154600480360381019061014f9190610c68565b610824565b005b34801561016257600080fd5b5061017d6004803603810190610178919061102c565b610ab3565b005b3373ffffffffffffffffffffffffffffffffffffffff1660008054906101000a900473ffffffffffffffffffffffffffffffffffffffff1673ffffffffffffffffffffffffffffffffffffffff161461020d576040517f08c379a0000000000000000000000000000000000000000000000000000000008152600401610204906110a5565b60405180910390fd5b3373ffffffffffffffffffffffffffffffffffffffff166108fc479081150290604051600060405180830381858888f19350505050158015610253573d6000803e3d6000fd5b50565b3373ffffffffffffffffffffffffffffffffffffffff1660008054906101000a900473ffffffffffffffffffffffffffffffffffffffff1673ffffffffffffffffffffffffffffffffffffffff16146102e4576040517f08c379a00000000000000000000000000000000000000000000000000000000081526004016102db906110a5565b60405180910390fd5b600060149054906101000a900460ff1615610334576040517f08c379a000000000000000000000000000000000000000000000000000000000815260040161032b90611111565b60405180910390fd5b60006001600083815260200190815260200160002060030160006101000a81548160ff02191690831515021790555050565b600160205280600052604060002060009150905080600001549080600101805461038f90611160565b80601f01602080910402602001604051908101604052809291908181526020018280546103bb90611160565b80156104085780601f106103dd57610100808354040283529160200191610408565b820191906000526020600020905b8154815290600101906020018083116103eb57829003601f168201915b5050505050908060020154908060030160009054906101000a900460ff16905084565b3373ffffffffffffffffffffffffffffffffffffffff1660008054906101000a900473ffffffffffffffffffffffffffffffffffffffff1673ffffffffffffffffffffffffffffffffffffffff16146104b9576040517f08c379a00000000000000000000000000000000000000000000000000000000081526004016104b0906110a5565b60405180910390fd5b600060149054906101000a900460ff1615610509576040517f08c379a000000000000000000000000000000000000000000000000000000000815260040161050090611111565b60405180910390fd5b600581602001515111610551576040517f08c379a000000000000000000000000000000000000000000000000000000000815260040161054890611203565b60405180910390fd5b60405180608001604052808260000151815260200182602001518152602001600081526020016001151581525060016000836000015181526020019081526020016000206000820151816000015560208201518160010190805190602001906105bb929190610b7b565b506040820151816002015560608201518160030160006101000a81548160ff02191690831515021790555090505050565b600060149054906101000a900460ff161561063c576040517f08c379a000000000000000000000000000000000000000000000000000000000815260040161063390611111565b60405180910390fd5b6000600160008481526020019081526020016000206040518060800160405290816000820154815260200160018201805461067690611160565b80601f01602080910402602001604051908101604052809291908181526020018280546106a290611160565b80156106ef5780601f106106c4576101008083540402835291602001916106ef565b820191906000526020600020905b8154815290600101906020018083116106d257829003601f168201915b50505050508152602001600282015481526020016003820160009054906101000a900460ff1615151515815250509050806060015115610764576040517f08c379a000000000000000000000000000000000000000000000000000000000815260040161075b9061126f565b60405180910390fd5b80604001518211156107ab576040517f08c379a00000000000000000000000000000000000000000000000000000000081526004016107a290611301565b60405180910390fd5b816001600085815260200190815260200160002060020160008282546107d19190611350565b925050819055503373ffffffffffffffffffffffffffffffffffffffff166108fc839081150290604051600060405180830381858888f1935050505015801561081e573d6000803e3d6000fd5b50505050565b600060149054906101000a900460ff1615610874576040517f08c379a000000000000000000000000000000000000000000000000000000000815260040161086b90611111565b60405180910390fd5b600060016000838152602001908152602001600020604051806080016040529081600082015481526020016001820180546108ae90611160565b80601f01602080910402602001604051908101604052809291908181526020018280546108da90611160565b80156109275780601f106108fc57610100808354040283529160200191610927565b820191906000526020600020905b81548152906001019060200180831161090a57829003601f168201915b50505050508152602001600282015481526020016003820160009054906101000a900460ff161515151581525050905080606001511561099c576040517f08c379a00000000000000000000000000000000000000000000000000000000081526004016109939061126f565b60405180910390fd5b60006109a734610b5e565b9050600281116109ec576040517f08c379a00000000000000000000000000000000000000000000000000000000081526004016109e3906113f6565b60405180910390fd5b80600160008581526020019081526020016000206002016000828254610a129190611416565b925050819055507f0b0e6eb2d8b92c18ec783003047b570bd400b8a471483d527026ac6c813269558260000151836020015183604051610a549392919061146c565b60405180910390a1600a811115610aae573373ffffffffffffffffffffffffffffffffffffffff166108fc60029081150290604051600060405180830381858888f19350505050158015610aac573d6000803e3d6000fd5b505b505050565b3373ffffffffffffffffffffffffffffffffffffffff1660008054906101000a900473ffffffffffffffffffffffffffffffffffffffff1673ffffffffffffffffffffffffffffffffffffffff1614610b41576040517f08c379a0000000000000000000000000000000000000000000000000000000008152600401610b38906110a5565b60405180910390fd5b80600060146101000a81548160ff02191690831515021790555050565b6000670de0b6b3a764000082610b7491906114d9565b9050919050565b828054610b8790611160565b90600052602060002090601f016020900481019282610ba95760008555610bf0565b82601f10610bc257805160ff1916838001178555610bf0565b82800160010185558215610bf0579182015b82811115610bef578251825591602001919060010190610bd4565b5b509050610bfd9190610c01565b5090565b5b80821115610c1a576000816000905550600101610c02565b5090565b6000604051905090565b600080fd5b600080fd5b6000819050919050565b610c4581610c32565b8114610c5057600080fd5b50565b600081359050610c6281610c3c565b92915050565b600060208284031215610c7e57610c7d610c28565b5b6000610c8c84828501610c53565b91505092915050565b610c9e81610c32565b82525050565b600081519050919050565b600082825260208201905092915050565b60005b83811015610cde578082015181840152602081019050610cc3565b83811115610ced576000848401525b50505050565b6000601f19601f8301169050919050565b6000610d0f82610ca4565b610d198185610caf565b9350610d29818560208601610cc0565b610d3281610cf3565b840191505092915050565b60008115159050919050565b610d5281610d3d565b82525050565b6000608082019050610d6d6000830187610c95565b8181036020830152610d7f8186610d04565b9050610d8e6040830185610c95565b610d9b6060830184610d49565b95945050505050565b600080fd5b7f4e487b7100000000000000000000000000000000000000000000000000000000600052604160045260246000fd5b610de182610cf3565b810181811067ffffffffffffffff82111715610e0057610dff610da9565b5b80604052505050565b6000610e13610c1e565b9050610e1f8282610dd8565b919050565b600080fd5b600080fd5b600080fd5b600067ffffffffffffffff821115610e4e57610e4d610da9565b5b610e5782610cf3565b9050602081019050919050565b82818337600083830152505050565b6000610e86610e8184610e33565b610e09565b905082815260208101848484011115610ea257610ea1610e2e565b5b610ead848285610e64565b509392505050565b600082601f830112610eca57610ec9610e29565b5b8135610eda848260208601610e73565b91505092915050565b610eec81610d3d565b8114610ef757600080fd5b50565b600081359050610f0981610ee3565b92915050565b600060808284031215610f2557610f24610da4565b5b610f2f6080610e09565b90506000610f3f84828501610c53565b600083015250602082013567ffffffffffffffff811115610f6357610f62610e24565b5b610f6f84828501610eb5565b6020830152506040610f8384828501610c53565b6040830152506060610f9784828501610efa565b60608301525092915050565b600060208284031215610fb957610fb8610c28565b5b600082013567ffffffffffffffff811115610fd757610fd6610c2d565b5b610fe384828501610f0f565b91505092915050565b6000806040838503121561100357611002610c28565b5b600061101185828601610c53565b925050602061102285828601610c53565b9150509250929050565b60006020828403121561104257611041610c28565b5b600061105084828501610efa565b91505092915050565b7f596f7520617265206e6f7420746865206f776e65722e00000000000000000000600082015250565b600061108f601683610caf565b915061109a82611059565b602082019050919050565b600060208201905081810360008301526110be81611082565b9050919050565b7f5468652062616e6b20697320636c6f7365642e00000000000000000000000000600082015250565b60006110fb601383610caf565b9150611106826110c5565b602082019050919050565b6000602082019050818103600083015261112a816110ee565b9050919050565b7f4e487b7100000000000000000000000000000000000000000000000000000000600052602260045260246000fd5b6000600282049050600182168061117857607f821691505b60208210810361118b5761118a611131565b5b50919050565b7f546865206e616d65206f662070726f647563742073686f756c64206265206d6f60008201527f7265207468616e20352e00000000000000000000000000000000000000000000602082015250565b60006111ed602a83610caf565b91506111f882611191565b604082019050919050565b6000602082019050818103600083015261121c816111e0565b9050919050565b7f596f7572206163636f756e7420697320626c6f636b65642e0000000000000000600082015250565b6000611259601883610caf565b915061126482611223565b602082019050919050565b600060208201905081810360008301526112888161124c565b9050919050565b7f596f7520646f6e2774206861766520656e6f756768206d6f6e657920696e207960008201527f6f7572206163636f756e7420746f207265647261772e00000000000000000000602082015250565b60006112eb603683610caf565b91506112f68261128f565b604082019050919050565b6000602082019050818103600083015261131a816112de565b9050919050565b7f4e487b7100000000000000000000000000000000000000000000000000000000600052601160045260246000fd5b600061135b82610c32565b915061136683610c32565b92508282101561137957611378611321565b5b828203905092915050565b7f546865206d696e696d756e206465706f7369742073686f756c64206265206d6f60008201527f7265207468616e2032204554482e000000000000000000000000000000000000602082015250565b60006113e0602e83610caf565b91506113eb82611384565b604082019050919050565b6000602082019050818103600083015261140f816113d3565b9050919050565b600061142182610c32565b915061142c83610c32565b9250827fffffffffffffffffffffffffffffffffffffffffffffffffffffffffffffffff0382111561146157611460611321565b5b828201905092915050565b60006060820190506114816000830186610c95565b81810360208301526114938185610d04565b90506114a26040830184610c95565b949350505050565b7f4e487b7100000000000000000000000000000000000000000000000000000000600052601260045260246000fd5b60006114e482610c32565b91506114ef83610c32565b9250826114ff576114fe6114aa565b5b82820490509291505056fea2646970667358221220d15d2e98e44b15851c80d696d0b41af1e2cbb938ec0c9aed4da282b7bbf95e2664736f6c634300080e0033",
  "immutableReferences": {},
  "source": "// SPDX-License-Identifier: GPL-3.0\r\npragma solidity ^0.8.0;\r\n\r\ncontract TestBank {\r\n\r\n    struct Account {\r\n        uint id;\r\n        string name;\r\n        uint balance;\r\n        bool enable;\r\n    }\r\n\r\n    address private ownerAddress;\r\n    bool private bankClosed = false;\r\n\r\n    event clientDeposit(uint id, string name, uint amount);\r\n\r\n    mapping(uint => Account) public listAccounts;\r\n\r\n    constructor() {\r\n        ownerAddress = msg.sender;\r\n    }\r\n\r\n    /**\r\n     * @dev create account of client for bank\r\n     * @param accountData data of new account\r\n     */\r\n    function createAccount(Account memory accountData) public onlyOwner closedBank {\r\n        require(bytes(accountData.name).length > 5, \"The name of product should be more than 5.\");\r\n        listAccounts[accountData.id] = Account(accountData.id, accountData.name, 0, true);\r\n    }\r\n\r\n    /**\r\n     * @dev allow to user deposit money to his account\r\n     * @param id of account\r\n     */\r\n    function depositMoney(uint id) public payable closedBank {\r\n        Account memory accountData = listAccounts[id];\r\n        require(!accountData.enable, \"Your account is blocked.\");\r\n        uint amount = convertWeiToEther(msg.value);\r\n        require(amount > 2, \"The minimun deposit should be more than 2 ETH.\");\r\n        listAccounts[id].balance += amount;\r\n        emit clientDeposit(accountData.id, accountData.name, amount);\r\n        if (amount > 10) {\r\n            payable(msg.sender).transfer(2);\r\n        }\r\n    }\r\n\r\n    /**\r\n     * @dev allow to user withdraw his money of his account\r\n     * @param id of account, amount to withdraw\r\n     */\r\n    function redrawMoney(uint id, uint amount) public payable closedBank {\r\n        Account memory accountData = listAccounts[id];\r\n        require(!accountData.enable, \"Your account is blocked.\");\r\n        require(amount <= accountData.balance, \"You don't have enough money in your account to redraw.\");\r\n        listAccounts[id].balance -= amount;\r\n        payable(msg.sender).transfer(amount);\r\n    }\r\n\r\n    /**\r\n     * @dev Manager of bank can lock one specific account\r\n     * @param id of account to lock\r\n     */\r\n    function blockAccount(uint id) public onlyOwner closedBank {\r\n        listAccounts[id].enable = false;\r\n    }\r\n\r\n    /**\r\n     * @dev Manager can open or close bank\r\n     * @param state true or false\r\n     */\r\n    function closeOrOpenBank(bool state) public onlyOwner {\r\n        bankClosed = state;\r\n    }\r\n\r\n    /**\r\n     * @dev Manager can withdraw all money of the bank\r\n     */\r\n    function withdrawAllMoney() public onlyOwner {\r\n        payable(msg.sender).transfer(address(this).balance);\r\n    }\r\n\r\n    /**\r\n     * @dev convert wei to ether\r\n     * @param amountInWei value in wei to convert\r\n     * @return param value in wei format\r\n     */\r\n    function convertWeiToEther(uint amountInWei) private pure returns (uint) {\r\n        return amountInWei / 1 ether;\r\n    }\r\n\r\n    // Modifier to allow just manager to do something\r\n    modifier onlyOwner() {\r\n        require(ownerAddress == msg.sender, \"You are not the owner.\");\r\n        _;\r\n    }\r\n\r\n    // Modifier to verify if bank is close or open\r\n    modifier closedBank() {\r\n        require(!bankClosed, \"The bank is closed.\");\r\n        _;\r\n    }\r\n\r\n}",
  "sourcePath": "C:\\Users\\LENOVO RYZEN 7\\OneDrive\\Documentos\\semestre5\\modulo3\\blockchain\\blockchain-course-Garcia\\src\\ethereum\\contracts\\TestBank.sol",
  "compiler": {
    "name": "solc",
    "version": "0.8.14+commit.80d49f37.Emscripten.clang"
  },
  "schemaVersion": "3.4.7",
  "updatedAt": "2022-06-17T18:05:57.744Z",
  "networkType": "ethereum",
  "devdoc": {
    "kind": "dev",
    "methods": {
      "blockAccount(uint256)": {
        "details": "Manager of bank can lock one specific account",
        "params": {
          "id": "of account to lock"
        }
      },
      "closeOrOpenBank(bool)": {
        "details": "Manager can open or close bank",
        "params": {
          "state": "true or false"
        }
      },
      "createAccount((uint256,string,uint256,bool))": {
        "details": "create account of client for bank",
        "params": {
          "accountData": "data of new account"
        }
      },
      "depositMoney(uint256)": {
        "details": "allow to user deposit money to his account",
        "params": {
          "id": "of account"
        }
      },
      "redrawMoney(uint256,uint256)": {
        "details": "allow to user withdraw his money of his account",
        "params": {
          "id": "of account, amount to withdraw"
        }
      },
      "withdrawAllMoney()": {
        "details": "Manager can withdraw all money of the bank"
      }
    },
    "version": 1
  },
  "userdoc": {
    "kind": "user",
    "methods": {},
    "version": 1
  }
}