{
  "_format": "hh-sol-artifact-1",
  "contractName": "Main",
  "sourceName": "src/ethereum-hardhat/contracts/Main.sol",
  "abi": [
    {
      "inputs": [],
      "stateMutability": "nonpayable",
      "type": "constructor"
    },
    {
      "inputs": [
        {
          "internalType": "address",
          "name": "account",
          "type": "address"
        }
      ],
      "name": "balanceAccount",
      "outputs": [
        {
          "internalType": "uint256",
          "name": "",
          "type": "uint256"
        }
      ],
      "stateMutability": "view",
      "type": "function"
    },
    {
      "inputs": [
        {
          "internalType": "address",
          "name": "client",
          "type": "address"
        },
        {
          "internalType": "uint256",
          "name": "amount",
          "type": "uint256"
        }
      ],
      "name": "buyTokens",
      "outputs": [],
      "stateMutability": "payable",
      "type": "function"
    },
    {
      "inputs": [
        {
          "internalType": "uint256",
          "name": "amount",
          "type": "uint256"
        }
      ],
      "name": "generetaTokens",
      "outputs": [],
      "stateMutability": "nonpayable",
      "type": "function"
    },
    {
      "inputs": [],
      "name": "getContractAddress",
      "outputs": [
        {
          "internalType": "address",
          "name": "",
          "type": "address"
        }
      ],
      "stateMutability": "view",
      "type": "function"
    },
    {
      "inputs": [],
      "name": "getTotalSupply",
      "outputs": [
        {
          "internalType": "uint256",
          "name": "",
          "type": "uint256"
        }
      ],
      "stateMutability": "view",
      "type": "function"
    },
    {
      "inputs": [
        {
          "internalType": "uint256",
          "name": "numTokens",
          "type": "uint256"
        }
      ],
      "name": "priceTokens",
      "outputs": [
        {
          "internalType": "uint256",
          "name": "",
          "type": "uint256"
        }
      ],
      "stateMutability": "nonpayable",
      "type": "function"
    }
  ],
  "bytecode": "0x608060405234801561001057600080fd5b5060405161001d90610109565b6100269061015c565b604051809103906000f080158015610042573d6000803e3d6000fd5b506000806101000a81548173ffffffffffffffffffffffffffffffffffffffff021916908373ffffffffffffffffffffffffffffffffffffffff16021790555033600160006101000a81548173ffffffffffffffffffffffffffffffffffffffff021916908373ffffffffffffffffffffffffffffffffffffffff16021790555030600260006101000a81548173ffffffffffffffffffffffffffffffffffffffff021916908373ffffffffffffffffffffffffffffffffffffffff1602179055506101f2565b6115eb80610acb83390190565b600061012360098361018f565b915061012e826101a0565b602082019050919050565b600061014660028361018f565b9150610151826101c9565b602082019050919050565b6000604082019050818103600083015261017581610116565b9050818103602083015261018881610139565b9050919050565b600082825260208201905092915050565b7f4b79626572436f696e0000000000000000000000000000000000000000000000600082015250565b7f4b43000000000000000000000000000000000000000000000000000000000000600082015250565b6108ca806102016000396000f3fe6080604052600436106100555760003560e01c80630752881a1461005a57806332a2c5d0146100765780635b7c4360146100a1578063a8a2a1b1146100de578063c4e41b221461011b578063fead724014610146575b600080fd5b610074600480360381019061006f9190610599565b61016f565b005b34801561008257600080fd5b5061008b6102ca565b6040516100989190610691565b60405180910390f35b3480156100ad57600080fd5b506100c860048036038101906100c39190610570565b6102f4565b6040516100d591906106f5565b60405180910390f35b3480156100ea57600080fd5b50610105600480360381019061010091906105fe565b6103a7565b60405161011291906106f5565b60405180910390f35b34801561012757600080fd5b506101306103c4565b60405161013d91906106f5565b60405180910390f35b34801561015257600080fd5b5061016d600480360381019061016891906105fe565b61046a565b005b600061017a826103a7565b9050803410156101bf576040517f08c379a00000000000000000000000000000000000000000000000000000000081526004016101b6906106d5565b60405180910390fd5b600081346101cd919061077b565b90503373ffffffffffffffffffffffffffffffffffffffff166108fc829081150290604051600060405180830381858888f19350505050158015610215573d6000803e3d6000fd5b5060008054906101000a900473ffffffffffffffffffffffffffffffffffffffff1673ffffffffffffffffffffffffffffffffffffffff1663a9059cbb85856040518363ffffffff1660e01b81526004016102719291906106ac565b602060405180830381600087803b15801561028b57600080fd5b505af115801561029f573d6000803e3d6000fd5b505050506040513d601f19601f820116820180604052508101906102c391906105d5565b5050505050565b6000600260009054906101000a900473ffffffffffffffffffffffffffffffffffffffff16905090565b60008060009054906101000a900473ffffffffffffffffffffffffffffffffffffffff1673ffffffffffffffffffffffffffffffffffffffff166370a08231836040518263ffffffff1660e01b81526004016103509190610691565b60206040518083038186803b15801561036857600080fd5b505afa15801561037c573d6000803e3d6000fd5b505050506040513d601f19601f820116820180604052508101906103a09190610627565b9050919050565b6000670de0b6b3a7640000826103bd9190610721565b9050919050565b60008060009054906101000a900473ffffffffffffffffffffffffffffffffffffffff1673ffffffffffffffffffffffffffffffffffffffff166318160ddd6040518163ffffffff1660e01b815260040160206040518083038186803b15801561042d57600080fd5b505afa158015610441573d6000803e3d6000fd5b505050506040513d601f19601f820116820180604052508101906104659190610627565b905090565b60008054906101000a900473ffffffffffffffffffffffffffffffffffffffff1673ffffffffffffffffffffffffffffffffffffffff1663b2aa9f0f600260009054906101000a900473ffffffffffffffffffffffffffffffffffffffff16836040518363ffffffff1660e01b81526004016104e79291906106ac565b600060405180830381600087803b15801561050157600080fd5b505af1158015610515573d6000803e3d6000fd5b5050505050565b60008135905061052b8161084f565b92915050565b60008151905061054081610866565b92915050565b6000813590506105558161087d565b92915050565b60008151905061056a8161087d565b92915050565b60006020828403121561058257600080fd5b60006105908482850161051c565b91505092915050565b600080604083850312156105ac57600080fd5b60006105ba8582860161051c565b92505060206105cb85828601610546565b9150509250929050565b6000602082840312156105e757600080fd5b60006105f584828501610531565b91505092915050565b60006020828403121561061057600080fd5b600061061e84828501610546565b91505092915050565b60006020828403121561063957600080fd5b60006106478482850161055b565b91505092915050565b610659816107af565b82525050565b600061066c600f83610710565b915061067782610826565b602082019050919050565b61068b816107ed565b82525050565b60006020820190506106a66000830184610650565b92915050565b60006040820190506106c16000830185610650565b6106ce6020830184610682565b9392505050565b600060208201905081810360008301526106ee8161065f565b9050919050565b600060208201905061070a6000830184610682565b92915050565b600082825260208201905092915050565b600061072c826107ed565b9150610737836107ed565b9250817fffffffffffffffffffffffffffffffffffffffffffffffffffffffffffffffff04831182151516156107705761076f6107f7565b5b828202905092915050565b6000610786826107ed565b9150610791836107ed565b9250828210156107a4576107a36107f7565b5b828203905092915050565b60006107ba826107cd565b9050919050565b60008115159050919050565b600073ffffffffffffffffffffffffffffffffffffffff82169050919050565b6000819050919050565b7f4e487b7100000000000000000000000000000000000000000000000000000000600052601160045260246000fd5b7f627579206d6f726520746f6b656e730000000000000000000000000000000000600082015250565b610858816107af565b811461086357600080fd5b50565b61086f816107c1565b811461087a57600080fd5b50565b610886816107ed565b811461089157600080fd5b5056fea2646970667358221220d242692c87e356a77877b5b45ad860d6a0f1036743a7774369b3a6426564951864736f6c6343000804003360806040523480156200001157600080fd5b50604051620015eb380380620015eb833981810160405281019062000037919062000193565b81600390805190602001906200004f92919062000071565b5080600490805190602001906200006892919062000071565b50505062000376565b8280546200007f906200029b565b90600052602060002090601f016020900481019282620000a35760008555620000ef565b82601f10620000be57805160ff1916838001178555620000ef565b82800160010185558215620000ef579182015b82811115620000ee578251825591602001919060010190620000d1565b5b509050620000fe919062000102565b5090565b5b808211156200011d57600081600090555060010162000103565b5090565b60006200013862000132846200022f565b62000206565b9050828152602081018484840111156200015157600080fd5b6200015e84828562000265565b509392505050565b600082601f8301126200017857600080fd5b81516200018a84826020860162000121565b91505092915050565b60008060408385031215620001a757600080fd5b600083015167ffffffffffffffff811115620001c257600080fd5b620001d08582860162000166565b925050602083015167ffffffffffffffff811115620001ee57600080fd5b620001fc8582860162000166565b9150509250929050565b60006200021262000225565b9050620002208282620002d1565b919050565b6000604051905090565b600067ffffffffffffffff8211156200024d576200024c62000336565b5b620002588262000365565b9050602081019050919050565b60005b838110156200028557808201518184015260208101905062000268565b8381111562000295576000848401525b50505050565b60006002820490506001821680620002b457607f821691505b60208210811415620002cb57620002ca62000307565b5b50919050565b620002dc8262000365565b810181811067ffffffffffffffff82111715620002fe57620002fd62000336565b5b80604052505050565b7f4e487b7100000000000000000000000000000000000000000000000000000000600052602260045260246000fd5b7f4e487b7100000000000000000000000000000000000000000000000000000000600052604160045260246000fd5b6000601f19601f8301169050919050565b61126580620003866000396000f3fe608060405234801561001057600080fd5b506004361061009e5760003560e01c806370a082311161006657806370a082311461015d57806395d89b411461018d578063a9059cbb146101ab578063b2aa9f0f146101db578063dd62ed3e146101f75761009e565b806306fdde03146100a3578063095ea7b3146100c157806318160ddd146100f157806323b872dd1461010f578063313ce5671461013f575b600080fd5b6100ab610227565b6040516100b89190610d51565b60405180910390f35b6100db60048036038101906100d69190610b59565b6102b9565b6040516100e89190610d36565b60405180910390f35b6100f96102d5565b6040516101069190610e53565b60405180910390f35b61012960048036038101906101249190610b0a565b6102df565b6040516101369190610d36565b60405180910390f35b610147610307565b6040516101549190610e6e565b60405180910390f35b61017760048036038101906101729190610aa5565b610310565b6040516101849190610e53565b60405180910390f35b610195610358565b6040516101a29190610d51565b60405180910390f35b6101c560048036038101906101c09190610b59565b6103ea565b6040516101d29190610d36565b60405180910390f35b6101f560048036038101906101f09190610b59565b610406565b005b610211600480360381019061020c9190610ace565b610414565b60405161021e9190610e53565b60405180910390f35b60606003805461023690610f83565b80601f016020809104026020016040519081016040528092919081815260200182805461026290610f83565b80156102af5780601f10610284576101008083540402835291602001916102af565b820191906000526020600020905b81548152906001019060200180831161029257829003601f168201915b5050505050905090565b6000803390506102ca81858561049b565b600191505092915050565b6000600254905090565b6000803390506102f085828561063c565b6102fb8585856106c8565b60019150509392505050565b60006012905090565b60008060008373ffffffffffffffffffffffffffffffffffffffff1673ffffffffffffffffffffffffffffffffffffffff168152602001908152602001600020549050919050565b60606004805461036790610f83565b80601f016020809104026020016040519081016040528092919081815260200182805461039390610f83565b80156103e05780601f106103b5576101008083540402835291602001916103e0565b820191906000526020600020905b8154815290600101906020018083116103c357829003601f168201915b5050505050905090565b6000803390506103fb8185856106c8565b600191505092915050565b6104108282610933565b5050565b6000600160008473ffffffffffffffffffffffffffffffffffffffff1673ffffffffffffffffffffffffffffffffffffffff16815260200190815260200160002060008373ffffffffffffffffffffffffffffffffffffffff1673ffffffffffffffffffffffffffffffffffffffff16815260200190815260200160002054905092915050565b600073ffffffffffffffffffffffffffffffffffffffff168373ffffffffffffffffffffffffffffffffffffffff16141561050b576040517f08c379a000000000000000000000000000000000000000000000000000000000815260040161050290610e33565b60405180910390fd5b600073ffffffffffffffffffffffffffffffffffffffff168273ffffffffffffffffffffffffffffffffffffffff16141561057b576040517f08c379a000000000000000000000000000000000000000000000000000000000815260040161057290610dd3565b60405180910390fd5b80600160008573ffffffffffffffffffffffffffffffffffffffff1673ffffffffffffffffffffffffffffffffffffffff16815260200190815260200160002060008473ffffffffffffffffffffffffffffffffffffffff1673ffffffffffffffffffffffffffffffffffffffff168152602001908152602001600020819055507f8c5be1e5ebec7d5bd14f71427d1e84f3dd0314c0f7b2291e5b200ac8c7c3b92583838360405161062f93929190610cff565b60405180910390a1505050565b60006106488484610414565b90507fffffffffffffffffffffffffffffffffffffffffffffffffffffffffffffffff81146106c257818110156106b4576040517f08c379a00000000000000000000000000000000000000000000000000000000081526004016106ab90610df3565b60405180910390fd5b6106c1848484840361049b565b5b50505050565b600073ffffffffffffffffffffffffffffffffffffffff168373ffffffffffffffffffffffffffffffffffffffff161415610738576040517f08c379a000000000000000000000000000000000000000000000000000000000815260040161072f90610e13565b60405180910390fd5b600073ffffffffffffffffffffffffffffffffffffffff168273ffffffffffffffffffffffffffffffffffffffff1614156107a8576040517f08c379a000000000000000000000000000000000000000000000000000000000815260040161079f90610d93565b60405180910390fd5b60008060008573ffffffffffffffffffffffffffffffffffffffff1673ffffffffffffffffffffffffffffffffffffffff1681526020019081526020016000205490508181101561082e576040517f08c379a000000000000000000000000000000000000000000000000000000000815260040161082590610d73565b60405180910390fd5b8181036000808673ffffffffffffffffffffffffffffffffffffffff1673ffffffffffffffffffffffffffffffffffffffff16815260200190815260200160002081905550816000808573ffffffffffffffffffffffffffffffffffffffff1673ffffffffffffffffffffffffffffffffffffffff16815260200190815260200160002060008282546108c19190610ea5565b925050819055508273ffffffffffffffffffffffffffffffffffffffff168473ffffffffffffffffffffffffffffffffffffffff167fddf252ad1be2c89b69c2b068fc378daa952ba7f163c4a11628f55a4df523b3ef846040516109259190610e53565b60405180910390a350505050565b600073ffffffffffffffffffffffffffffffffffffffff168273ffffffffffffffffffffffffffffffffffffffff1614156109a3576040517f08c379a000000000000000000000000000000000000000000000000000000000815260040161099a90610db3565b60405180910390fd5b80600260008282546109b59190610ea5565b92505081905550806000808473ffffffffffffffffffffffffffffffffffffffff1673ffffffffffffffffffffffffffffffffffffffff1681526020019081526020016000206000828254610a0a9190610ea5565b925050819055508173ffffffffffffffffffffffffffffffffffffffff16600073ffffffffffffffffffffffffffffffffffffffff167fddf252ad1be2c89b69c2b068fc378daa952ba7f163c4a11628f55a4df523b3ef83604051610a6f9190610e53565b60405180910390a35050565b600081359050610a8a81611201565b92915050565b600081359050610a9f81611218565b92915050565b600060208284031215610ab757600080fd5b6000610ac584828501610a7b565b91505092915050565b60008060408385031215610ae157600080fd5b6000610aef85828601610a7b565b9250506020610b0085828601610a7b565b9150509250929050565b600080600060608486031215610b1f57600080fd5b6000610b2d86828701610a7b565b9350506020610b3e86828701610a7b565b9250506040610b4f86828701610a90565b9150509250925092565b60008060408385031215610b6c57600080fd5b6000610b7a85828601610a7b565b9250506020610b8b85828601610a90565b9150509250929050565b610b9e81610efb565b82525050565b610bad81610f0d565b82525050565b6000610bbe82610e89565b610bc88185610e94565b9350610bd8818560208601610f50565b610be181611013565b840191505092915050565b6000610bf9602783610e94565b9150610c0482611024565b604082019050919050565b6000610c1c602483610e94565b9150610c2782611073565b604082019050919050565b6000610c3f601e83610e94565b9150610c4a826110c2565b602082019050919050565b6000610c62602383610e94565b9150610c6d826110eb565b604082019050919050565b6000610c85601e83610e94565b9150610c908261113a565b602082019050919050565b6000610ca8602683610e94565b9150610cb382611163565b604082019050919050565b6000610ccb602583610e94565b9150610cd6826111b2565b604082019050919050565b610cea81610f39565b82525050565b610cf981610f43565b82525050565b6000606082019050610d146000830186610b95565b610d216020830185610b95565b610d2e6040830184610ce1565b949350505050565b6000602082019050610d4b6000830184610ba4565b92915050565b60006020820190508181036000830152610d6b8184610bb3565b905092915050565b60006020820190508181036000830152610d8c81610bec565b9050919050565b60006020820190508181036000830152610dac81610c0f565b9050919050565b60006020820190508181036000830152610dcc81610c32565b9050919050565b60006020820190508181036000830152610dec81610c55565b9050919050565b60006020820190508181036000830152610e0c81610c78565b9050919050565b60006020820190508181036000830152610e2c81610c9b565b9050919050565b60006020820190508181036000830152610e4c81610cbe565b9050919050565b6000602082019050610e686000830184610ce1565b92915050565b6000602082019050610e836000830184610cf0565b92915050565b600081519050919050565b600082825260208201905092915050565b6000610eb082610f39565b9150610ebb83610f39565b9250827fffffffffffffffffffffffffffffffffffffffffffffffffffffffffffffffff03821115610ef057610eef610fb5565b5b828201905092915050565b6000610f0682610f19565b9050919050565b60008115159050919050565b600073ffffffffffffffffffffffffffffffffffffffff82169050919050565b6000819050919050565b600060ff82169050919050565b60005b83811015610f6e578082015181840152602081019050610f53565b83811115610f7d576000848401525b50505050565b60006002820490506001821680610f9b57607f821691505b60208210811415610faf57610fae610fe4565b5b50919050565b7f4e487b7100000000000000000000000000000000000000000000000000000000600052601160045260246000fd5b7f4e487b7100000000000000000000000000000000000000000000000000000000600052602260045260246000fd5b6000601f19601f8301169050919050565b7f45524332303a207472616e7366657220616d6f756e742065786365656473206260008201527f616c616e63652e00000000000000000000000000000000000000000000000000602082015250565b7f45524332303a207472616e7366657220746f20746865207a65726f206164647260008201527f6573732e00000000000000000000000000000000000000000000000000000000602082015250565b7f4552433a206d696e7420746f20746865207a65726f20616464726573732e0000600082015250565b7f45524332303a20617070726f766520746f20746865207a65726f20616464726560008201527f73732e0000000000000000000000000000000000000000000000000000000000602082015250565b7f45524332303a20696e73756666696369656e7420616c6c6f77616e63652e0000600082015250565b7f45524332303a207472616e736665722066726f6d20746865207a65726f20616460008201527f64726573732e0000000000000000000000000000000000000000000000000000602082015250565b7f45524332303a20617070726f76652066726f6d20746865207a65726f2061646460008201527f726573732e000000000000000000000000000000000000000000000000000000602082015250565b61120a81610efb565b811461121557600080fd5b50565b61122181610f39565b811461122c57600080fd5b5056fea26469706673582212207164e499a500f8ffe51caaff1a07fdcc5a4397aea440ae28704718fe09b599dc64736f6c63430008040033",
  "linkReferences": {},
  "deployedLinkReferences": {}
}